:03000000020154A6
:0C015400787FE4F6D8FD75812602019B3F
:10000300E4F5081204901203D9120255900000740B
:10001300FFF0A37401F0A304F0A304F09001FF74B4
:10002300F0F0E4F525F5267B017A007900AF24AEE4
:1000330023AD22AC217510027511001201E0E425F5
:1000430024F524E5233402F523E43522F522E435AF
:1000530021F5217B017A0079001203917B017A005B
:100063007900AF24AE23AD22AC21751002751100C7
:100073001201E0E42524F524E5233402F523E435D5
:1000830022F522E43521F5217B017A007900120360
:10009300B57F0C12044805080526E52670020525E0
:1000A300C39490E5259408500302002AE4F524F54F
:0700B30023F522F52180FE78
:0604990004210000000038
:0402B400D2937FFF63
:1002B800EFC290A2E79292D290C290A2E69292D216
:1002C80090C290A2E59292D290C290A2E49292D269
:1002D80090C290A2E39292D290C290A2E29292D25D
:1002E80090C290A2E19292D290C290A2E09292D251
:0402F80090D29222EC
:1002FC00C290D290A29192E7C290D290A29192E633
:10030C00C290D290A29192E5C290D290A29192E426
:10031C00C290D290A29192E3C290D290A29192E21A
:10032C00C290D290A29192E1C290D290A29192E00E
:02033C00FF229E
:10043200E4FD1202FCAE07EE6009EE640160040DF9
:05044200BD09EFAF064B
:010447002292
:1003FA00EF4440FF1202B8AF131202B8AF14120250
:10040A00B8AF151202B8AF161202B8AF170202B887
:10025500E4F509F50AF50BF50C7E01D293FD7FFF58
:100265001202B80DBD0AF7C293E4F516F515F5149B
:10027500F513751795FF1203FA120432AE07EE64F3
:100285000160037F0022BE01201202B4C2937516DD
:10029500007515C07514FF7513007517FF7F0112E2
:0E02A50003FA120432AE0780DD1202B47F01AC
:0102B3002228
:0E00BA008B188A19891A8F1E8E1D8D1C8C1BA7
:1000C800C2938F168E158D148C137517FF7F181217
:1000D80003FA120432EF70717FFF1202B81202B8ED
:1000E8001202B81F1202B8E4FDFCC3ED9520EC958E
:1000F8001F501CAB18051AE51AAA19700205191425
:10010800F912033EFF1202B80DBD00010C80DBC3DB
:10011800EC9402500CE4FF1202B80DBD00010C80F3
:10012800EE7FFF1202B81202B81202FCAE071202EA
:10013800FCEF60FA53060F1202B4BE0B037F0022D5
:0B014800BE05037F01227F00227F0024
:010153002289
:0E01E0008B098A0A890B8F0F8E0E8D0D8C0CE9
:1001EE00C2938F168E158D148C137517FF7F1112F7
:1001FE0003FA120432EF704C1202FCBFFEFAE4FD59
:10020E00FCC3ED9511EC9510501C1202FCAB0905C8
:10021E000BE50BAA0A7002050A14F9EF1203570D2B
:10022E00BD00010C80DBC3EC9402500A1202FC0DDF
:10023E00BD00010C80F01202FC1202FCD2931202DD
:06024E00FC7F01227F008D
:010254002287
:0F045D0075A0FFD2B1C2B2D2B0C2B0E5A03322B7
:0E0369007F02120377AF06E4FD12046CE4FF7E
:10037700EF14600C14600E2402700EC2B4D2B322C4
:0A038700D2B4C2B322C2B4C2B32242
:0B047A00C2B1C2B28FA0D2B0C2B0224B
:10041A0012045D40FBD2B1D2B2D2B0C2B0D2B1D2D4
:07042A00B2D2B0AFA0C2B0D6
:0104310022A8
:0B048500C2B1D2B28FA0D2B0C2B02230
:0E046C00EF24B8FF12047AED2440FF02047A58
:1003D9007F021203777EB8AF0612047A7F401204B7
:1003E9007AE4FDE4FF1204850DBD40F70EBEC0E7B7
:0103F90022E1
:09049000C2B3C2B47F3F02047A3A
:10039100E4FE12036912033EFF120485740129F978
:1003A100E43AFABD3F057F011203770DBD80E60EE9
:0303B100BE04DFA8
:0103B4002226
:1003B5007E0412036912033EFF120485740129F9B4
:1003C500E43AFABD3F057F011203770DBD80E60EC5
:0303D500BE08DF80
:0103D8002202
:0304A000DFFE225A
:10044800AE07AF061EEF600C7FF51204A07FF51211
:0504580004A080EE226B
:10016000020003E493A3F8E493A34003F68001F2B2
:1001700008DFF48029E493A3F85407240CC8C333A0
:10018000C4540F4420C8834004F456800146F6DF6F
:10019000E4800B0102040810204080900499E47E62
:1001A000019360BCA3FF543F30E509541FFEE49364
:1001B000A360010ECF54C025E060A840B8E493A32B
:1001C000FAE493A3F8E493A3C8C582C8CAC583CA56
:1001D000F0A3C8C582C8CAC583CADFE9DEE780BE0E
:01049F00005C
:10033E00BB010689828A83E0225002E722BBFE02BD
:09034E00E32289828A83E49322F0
:10035700BB010689828A83F0225002F722BBFE0185
:02036700F3227F
:00000001FF
